{
  "_format": "hh-sol-artifact-1",
  "contractName": "WavePortal",
  "sourceName": "contracts/WavePortal.sol",
  "abi": [
    {
      "inputs": [],
      "stateMutability": "payable",
      "type": "constructor"
    },
    {
      "anonymous": false,
      "inputs": [
        {
          "indexed": true,
          "internalType": "address",
          "name": "from",
          "type": "address"
        },
        {
          "indexed": false,
          "internalType": "uint256",
          "name": "timestamp",
          "type": "uint256"
        },
        {
          "indexed": false,
          "internalType": "string",
          "name": "message",
          "type": "string"
        }
      ],
      "name": "NewWave",
      "type": "event"
    },
    {
      "inputs": [],
      "name": "getAllWaves",
      "outputs": [
        {
          "components": [
            {
              "internalType": "address",
              "name": "waver",
              "type": "address"
            },
            {
              "internalType": "string",
              "name": "message",
              "type": "string"
            },
            {
              "internalType": "uint256",
              "name": "timestamp",
              "type": "uint256"
            }
          ],
          "internalType": "struct WavePortal.Wave[]",
          "name": "",
          "type": "tuple[]"
        }
      ],
      "stateMutability": "view",
      "type": "function"
    },
    {
      "inputs": [],
      "name": "getTotalWaves",
      "outputs": [
        {
          "internalType": "uint256",
          "name": "",
          "type": "uint256"
        }
      ],
      "stateMutability": "view",
      "type": "function"
    },
    {
      "inputs": [],
      "name": "getWalletAddresses",
      "outputs": [
        {
          "internalType": "address[]",
          "name": "",
          "type": "address[]"
        }
      ],
      "stateMutability": "view",
      "type": "function"
    },
    {
      "inputs": [
        {
          "internalType": "string",
          "name": "_message",
          "type": "string"
        }
      ],
      "name": "wave",
      "outputs": [],
      "stateMutability": "nonpayable",
      "type": "function"
    }
  ],
  "bytecode": "0x6080604052620000336040518060600160405280602f815260200162001256602f91396200003960201b620005a31760201c565b620001cd565b620000d98160405160240162000050919062000146565b6040516020818303038152906040527f41304fac000000000000000000000000000000000000000000000000000000007bffffffffffffffffffffffffffffffffffffffffffffffffffffffff19166020820180517bffffffffffffffffffffffffffffffffffffffffffffffffffffffff8381831617835250505050620000dc60201b60201c565b50565b60008151905060006a636f6e736f6c652e6c6f679050602083016000808483855afa5050505050565b600062000112826200016a565b6200011e818562000175565b93506200013081856020860162000186565b6200013b81620001bc565b840191505092915050565b6000602082019050818103600083015262000162818462000105565b905092915050565b600081519050919050565b600082825260208201905092915050565b60005b83811015620001a657808201518184015260208101905062000189565b83811115620001b6576000848401525b50505050565b6000601f19601f8301169050919050565b61107980620001dd6000396000f3fe608060405234801561001057600080fd5b506004361061004c5760003560e01c8063449d46c0146100515780638ada528e1461006d5780639a2cdc081461008b578063bd43a908146100a9575b600080fd5b61006b600480360381019061006691906108ab565b6100c7565b005b61007561033b565b6040516100829190610b67565b60405180910390f35b610093610407565b6040516100a09190610c82565b60405180910390f35b6100b1610452565b6040516100be9190610b89565b60405180910390f35b60016000808282546100d99190610dcd565b925050819055506101206040518060400160405280601681526020017f257320776176656420772f206d65737361676520257300000000000000000000815250338361063c565b600260405180606001604052803373ffffffffffffffffffffffffffffffffffffffff16815260200183815260200142815250908060018154018082558091505060019003906000526020600020906003020160009091909190915060008201518160000160006101000a81548173ffffffffffffffffffffffffffffffffffffffff021916908373ffffffffffffffffffffffffffffffffffffffff16021790555060208201518160010190805190602001906101df9291906107a0565b506040820151816002015550503373ffffffffffffffffffffffffffffffffffffffff167f5f7e16dc676677766a70e9c5628aa6c54ddb8b6e5188e2ae1e1f17f1ffbea7164283604051610234929190610c9d565b60405180910390a26000655af3107a400090504781111561028a576040517f08c379a000000000000000000000000000000000000000000000000000000000815260040161028190610c42565b60405180910390fd5b60003373ffffffffffffffffffffffffffffffffffffffff16826040516102b090610b52565b60006040518083038185875af1925050503d80600081146102ed576040519150601f19603f3d011682016040523d82523d6000602084013e6102f2565b606091505b5050905080610336576040517f08c379a000000000000000000000000000000000000000000000000000000000815260040161032d90610c62565b60405180910390fd5b505050565b606061037b6040518060400160405280601f81526020017f546865736520617265207468652077616c6c65742061646472657373657321008152506105a3565b60018054806020026020016040519081016040528092919081815260200182805480156103fd57602002820191906000526020600020905b8160009054906101000a900473ffffffffffffffffffffffffffffffffffffffff1673ffffffffffffffffffffffffffffffffffffffff16815260200190600101908083116103b3575b5050505050905090565b600061044a6040518060400160405280601781526020017f5765206861766520256420746f74616c207761766573210000000000000000008152506000546106db565b600054905090565b60606002805480602002602001604051908101604052809291908181526020016000905b8282101561059a57838290600052602060002090600302016040518060600160405290816000820160009054906101000a900473ffffffffffffffffffffffffffffffffffffffff1673ffffffffffffffffffffffffffffffffffffffff1673ffffffffffffffffffffffffffffffffffffffff1681526020016001820180546104ff90610ea1565b80601f016020809104026020016040519081016040528092919081815260200182805461052b90610ea1565b80156105785780601f1061054d57610100808354040283529160200191610578565b820191906000526020600020905b81548152906001019060200180831161055b57829003601f168201915b5050505050815260200160028201548152505081526020019060010190610476565b50505050905090565b610639816040516024016105b79190610bab565b6040516020818303038152906040527f41304fac000000000000000000000000000000000000000000000000000000007bffffffffffffffffffffffffffffffffffffffffffffffffffffffff19166020820180517bffffffffffffffffffffffffffffffffffffffffffffffffffffffff8381831617835250505050610777565b50565b6106d683838360405160240161065493929190610bcd565b6040516020818303038152906040527fe0e9ad4f000000000000000000000000000000000000000000000000000000007bffffffffffffffffffffffffffffffffffffffffffffffffffffffff19166020820180517bffffffffffffffffffffffffffffffffffffffffffffffffffffffff8381831617835250505050610777565b505050565b61077382826040516024016106f1929190610c12565b6040516020818303038152906040527f9710a9d0000000000000000000000000000000000000000000000000000000007bffffffffffffffffffffffffffffffffffffffffffffffffffffffff19166020820180517bffffffffffffffffffffffffffffffffffffffffffffffffffffffff8381831617835250505050610777565b5050565b60008151905060006a636f6e736f6c652e6c6f679050602083016000808483855afa5050505050565b8280546107ac90610ea1565b90600052602060002090601f0160209004810192826107ce5760008555610815565b82601f106107e757805160ff1916838001178555610815565b82800160010185558215610815579182015b828111156108145782518255916020019190600101906107f9565b5b5090506108229190610826565b5090565b5b8082111561083f576000816000905550600101610827565b5090565b600061085661085184610cf2565b610ccd565b90508281526020810184848401111561086e57600080fd5b610879848285610e5f565b509392505050565b600082601f83011261089257600080fd5b81356108a2848260208601610843565b91505092915050565b6000602082840312156108bd57600080fd5b600082013567ffffffffffffffff8111156108d757600080fd5b6108e384828501610881565b91505092915050565b60006108f88383610918565b60208301905092915050565b60006109108383610ae4565b905092915050565b61092181610e23565b82525050565b61093081610e23565b82525050565b600061094182610d43565b61094b8185610d7e565b935061095683610d23565b8060005b8381101561098757815161096e88826108ec565b975061097983610d64565b92505060018101905061095a565b5085935050505092915050565b600061099f82610d4e565b6109a98185610d8f565b9350836020820285016109bb85610d33565b8060005b858110156109f757848403895281516109d88582610904565b94506109e383610d71565b925060208a019950506001810190506109bf565b50829750879550505050505092915050565b6000610a1482610d59565b610a1e8185610dab565b9350610a2e818560208601610e6e565b610a3781610f91565b840191505092915050565b6000610a4d82610d59565b610a578185610dbc565b9350610a67818560208601610e6e565b610a7081610f91565b840191505092915050565b6000610a88603483610dbc565b9150610a9382610fa2565b604082019050919050565b6000610aab602783610dbc565b9150610ab682610ff1565b604082019050919050565b6000610ace600083610da0565b9150610ad982611040565b600082019050919050565b6000606083016000830151610afc6000860182610918565b5060208301518482036020860152610b148282610a09565b9150506040830151610b296040860182610b34565b508091505092915050565b610b3d81610e55565b82525050565b610b4c81610e55565b82525050565b6000610b5d82610ac1565b9150819050919050565b60006020820190508181036000830152610b818184610936565b905092915050565b60006020820190508181036000830152610ba38184610994565b905092915050565b60006020820190508181036000830152610bc58184610a42565b905092915050565b60006060820190508181036000830152610be78186610a42565b9050610bf66020830185610927565b8181036040830152610c088184610a42565b9050949350505050565b60006040820190508181036000830152610c2c8185610a42565b9050610c3b6020830184610b43565b9392505050565b60006020820190508181036000830152610c5b81610a7b565b9050919050565b60006020820190508181036000830152610c7b81610a9e565b9050919050565b6000602082019050610c976000830184610b43565b92915050565b6000604082019050610cb26000830185610b43565b8181036020830152610cc48184610a42565b90509392505050565b6000610cd7610ce8565b9050610ce38282610ed3565b919050565b6000604051905090565b600067ffffffffffffffff821115610d0d57610d0c610f62565b5b610d1682610f91565b9050602081019050919050565b6000819050602082019050919050565b6000819050602082019050919050565b600081519050919050565b600081519050919050565b600081519050919050565b6000602082019050919050565b6000602082019050919050565b600082825260208201905092915050565b600082825260208201905092915050565b600081905092915050565b600082825260208201905092915050565b600082825260208201905092915050565b6000610dd882610e55565b9150610de383610e55565b9250827fffffffffffffffffffffffffffffffffffffffffffffffffffffffffffffffff03821115610e1857610e17610f04565b5b828201905092915050565b6000610e2e82610e35565b9050919050565b600073ffffffffffffffffffffffffffffffffffffffff82169050919050565b6000819050919050565b82818337600083830152505050565b60005b83811015610e8c578082015181840152602081019050610e71565b83811115610e9b576000848401525b50505050565b60006002820490506001821680610eb957607f821691505b60208210811415610ecd57610ecc610f33565b5b50919050565b610edc82610f91565b810181811067ffffffffffffffff82111715610efb57610efa610f62565b5b80604052505050565b7f4e487b7100000000000000000000000000000000000000000000000000000000600052601160045260246000fd5b7f4e487b7100000000000000000000000000000000000000000000000000000000600052602260045260246000fd5b7f4e487b7100000000000000000000000000000000000000000000000000000000600052604160045260246000fd5b6000601f19601f8301169050919050565b7f547279696e6720746f207769746864726177206d6f7265206d6f6e657920746860008201527f616e2074686520636f6e7472616374206861732e000000000000000000000000602082015250565b7f4661696c656420746f207769746864726177206d6f6e65792066726f6d20636f60008201527f6e74726163742e00000000000000000000000000000000000000000000000000602082015250565b5056fea2646970667358221220ccfe8ac3ffc32f043a32af78788614950a95110588605b4d994e8a8c9b6c904564736f6c63430008040033596f2c2077652074686520736d61727420636f6e747261637420616e6420776520736d6172742061732068656c6c21",
  "linkReferences": {},
  "deployedLinkReferences": {}
}