{
  "_format": "hh-sol-artifact-1",
  "contractName": "WavePortal",
  "sourceName": "contracts/WavePortal.sol",
  "abi": [
    {
      "inputs": [],
      "stateMutability": "payable",
      "type": "constructor"
    },
    {
      "anonymous": false,
      "inputs": [
        {
          "indexed": true,
          "internalType": "address",
          "name": "from",
          "type": "address"
        },
        {
          "indexed": false,
          "internalType": "uint256",
          "name": "timestamp",
          "type": "uint256"
        },
        {
          "indexed": false,
          "internalType": "string",
          "name": "message",
          "type": "string"
        }
      ],
      "name": "NewWave",
      "type": "event"
    },
    {
      "inputs": [],
      "name": "getAllWaves",
      "outputs": [
        {
          "components": [
            {
              "internalType": "address",
              "name": "waver",
              "type": "address"
            },
            {
              "internalType": "string",
              "name": "message",
              "type": "string"
            },
            {
              "internalType": "uint256",
              "name": "timestamp",
              "type": "uint256"
            }
          ],
          "internalType": "struct WavePortal.Wave[]",
          "name": "",
          "type": "tuple[]"
        }
      ],
      "stateMutability": "view",
      "type": "function"
    },
    {
      "inputs": [],
      "name": "getTotalWaves",
      "outputs": [
        {
          "internalType": "uint256",
          "name": "",
          "type": "uint256"
        }
      ],
      "stateMutability": "view",
      "type": "function"
    },
    {
      "inputs": [],
      "name": "getWalletAddresses",
      "outputs": [
        {
          "internalType": "address[]",
          "name": "",
          "type": "address[]"
        }
      ],
      "stateMutability": "view",
      "type": "function"
    },
    {
      "inputs": [
        {
          "internalType": "address",
          "name": "",
          "type": "address"
        }
      ],
      "name": "lastWavedAt",
      "outputs": [
        {
          "internalType": "uint256",
          "name": "",
          "type": "uint256"
        }
      ],
      "stateMutability": "view",
      "type": "function"
    },
    {
      "inputs": [
        {
          "internalType": "string",
          "name": "_message",
          "type": "string"
        }
      ],
      "name": "wave",
      "outputs": [],
      "stateMutability": "nonpayable",
      "type": "function"
    }
  ],
  "bytecode": "0x6080604052620000336040518060600160405280602f81526020016200173c602f91396200005b60201b6200077d1760201c565b60644442620000439190620001a8565b6200004f919062000245565b600181905550620002ec565b620000fb8160405160240162000072919062000168565b6040516020818303038152906040527f41304fac000000000000000000000000000000000000000000000000000000007bffffffffffffffffffffffffffffffffffffffffffffffffffffffff19166020820180517bffffffffffffffffffffffffffffffffffffffffffffffffffffffff8381831617835250505050620000fe60201b60201c565b50565b60008151905060006a636f6e736f6c652e6c6f679050602083016000808483855afa5050505050565b600062000134826200018c565b62000140818562000197565b9350620001528185602086016200020f565b6200015d81620002db565b840191505092915050565b6000602082019050818103600083015262000184818462000127565b905092915050565b600081519050919050565b600082825260208201905092915050565b6000620001b58262000205565b9150620001c28362000205565b9250827fffffffffffffffffffffffffffffffffffffffffffffffffffffffffffffffff03821115620001fa57620001f96200027d565b5b828201905092915050565b6000819050919050565b60005b838110156200022f57808201518184015260208101905062000212565b838111156200023f576000848401525b50505050565b6000620002528262000205565b91506200025f8362000205565b925082620002725762000271620002ac565b5b828206905092915050565b7f4e487b7100000000000000000000000000000000000000000000000000000000600052601160045260246000fd5b7f4e487b7100000000000000000000000000000000000000000000000000000000600052601260045260246000fd5b6000601f19601f8301169050919050565b61144080620002fc6000396000f3fe608060405234801561001057600080fd5b50600436106100575760003560e01c8063449d46c01461005c5780638ada528e146100785780639a2cdc0814610096578063a42a4663146100b4578063bd43a908146100e4575b600080fd5b61007660048036038101906100719190610b5f565b610102565b005b6100806104fd565b60405161008d9190610e3e565b60405180910390f35b61009e6105c9565b6040516100ab9190610fa9565b60405180910390f35b6100ce60048036038101906100c99190610b36565b610614565b6040516100db9190610fa9565b60405180910390f35b6100ec61062c565b6040516100f99190610e60565b60405180910390f35b42601e600460003373ffffffffffffffffffffffffffffffffffffffff1673ffffffffffffffffffffffffffffffffffffffff1681526020019081526020016000205461014f91906110f4565b1061018f576040517f08c379a000000000000000000000000000000000000000000000000000000000815260040161018690610f49565b60405180910390fd5b42600460003373ffffffffffffffffffffffffffffffffffffffff1673ffffffffffffffffffffffffffffffffffffffff1681526020019081526020016000208190555060016000808282546101e591906110f4565b9250508190555061022c6040518060400160405280601681526020017f257320776176656420772f206d657373616765202573000000000000000000008152503383610816565b600360405180606001604052803373ffffffffffffffffffffffffffffffffffffffff16815260200183815260200142815250908060018154018082558091505060019003906000526020600020906003020160009091909190915060008201518160000160006101000a81548173ffffffffffffffffffffffffffffffffffffffff021916908373ffffffffffffffffffffffffffffffffffffffff16021790555060208201518160010190805190602001906102eb929190610a16565b506040820151816002015550506064600154424461030991906110f4565b61031391906110f4565b61031d919061122b565b6001819055506103646040518060400160405280601681526020017f52616e646f6d20232067656e6572617465643a202564000000000000000000008152506001546108b5565b6032600154116104aa576103ad6040518060400160405280600781526020017f257320776f6e2e0000000000000000000000000000000000000000000000000081525033610951565b6000655af3107a40009050478111156103fb576040517f08c379a00000000000000000000000000000000000000000000000000000000081526004016103f290610f69565b60405180910390fd5b60003373ffffffffffffffffffffffffffffffffffffffff168260405161042190610e29565b60006040518083038185875af1925050503d806000811461045e576040519150601f19603f3d011682016040523d82523d6000602084013e610463565b606091505b50509050806104a7576040517f08c379a000000000000000000000000000000000000000000000000000000000815260040161049e90610f89565b60405180910390fd5b50505b3373ffffffffffffffffffffffffffffffffffffffff167f5f7e16dc676677766a70e9c5628aa6c54ddb8b6e5188e2ae1e1f17f1ffbea71642836040516104f2929190610fc4565b60405180910390a250565b606061053d6040518060400160405280601f81526020017f546865736520617265207468652077616c6c657420616464726573736573210081525061077d565b60028054806020026020016040519081016040528092919081815260200182805480156105bf57602002820191906000526020600020905b8160009054906101000a900473ffffffffffffffffffffffffffffffffffffffff1673ffffffffffffffffffffffffffffffffffffffff1681526020019060010190808311610575575b5050505050905090565b600061060c6040518060400160405280601781526020017f5765206861766520256420746f74616c207761766573210000000000000000008152506000546108b5565b600054905090565b60046020528060005260406000206000915090505481565b60606003805480602002602001604051908101604052809291908181526020016000905b8282101561077457838290600052602060002090600302016040518060600160405290816000820160009054906101000a900473ffffffffffffffffffffffffffffffffffffffff1673ffffffffffffffffffffffffffffffffffffffff1673ffffffffffffffffffffffffffffffffffffffff1681526020016001820180546106d9906111c8565b80601f0160208091040260200160405190810160405280929190818152602001828054610705906111c8565b80156107525780601f1061072757610100808354040283529160200191610752565b820191906000526020600020905b81548152906001019060200180831161073557829003601f168201915b5050505050815260200160028201548152505081526020019060010190610650565b50505050905090565b610813816040516024016107919190610e82565b6040516020818303038152906040527f41304fac000000000000000000000000000000000000000000000000000000007bffffffffffffffffffffffffffffffffffffffffffffffffffffffff19166020820180517bffffffffffffffffffffffffffffffffffffffffffffffffffffffff83818316178352505050506109ed565b50565b6108b083838360405160240161082e93929190610ed4565b6040516020818303038152906040527fe0e9ad4f000000000000000000000000000000000000000000000000000000007bffffffffffffffffffffffffffffffffffffffffffffffffffffffff19166020820180517bffffffffffffffffffffffffffffffffffffffffffffffffffffffff83818316178352505050506109ed565b505050565b61094d82826040516024016108cb929190610f19565b6040516020818303038152906040527f9710a9d0000000000000000000000000000000000000000000000000000000007bffffffffffffffffffffffffffffffffffffffffffffffffffffffff19166020820180517bffffffffffffffffffffffffffffffffffffffffffffffffffffffff83818316178352505050506109ed565b5050565b6109e98282604051602401610967929190610ea4565b6040516020818303038152906040527f319af333000000000000000000000000000000000000000000000000000000007bffffffffffffffffffffffffffffffffffffffffffffffffffffffff19166020820180517bffffffffffffffffffffffffffffffffffffffffffffffffffffffff83818316178352505050506109ed565b5050565b60008151905060006a636f6e736f6c652e6c6f679050602083016000808483855afa5050505050565b828054610a22906111c8565b90600052602060002090601f016020900481019282610a445760008555610a8b565b82601f10610a5d57805160ff1916838001178555610a8b565b82800160010185558215610a8b579182015b82811115610a8a578251825591602001919060010190610a6f565b5b509050610a989190610a9c565b5090565b5b80821115610ab5576000816000905550600101610a9d565b5090565b6000610acc610ac784611019565b610ff4565b905082815260208101848484011115610ae457600080fd5b610aef848285611186565b509392505050565b600081359050610b06816113f3565b92915050565b600082601f830112610b1d57600080fd5b8135610b2d848260208601610ab9565b91505092915050565b600060208284031215610b4857600080fd5b6000610b5684828501610af7565b91505092915050565b600060208284031215610b7157600080fd5b600082013567ffffffffffffffff811115610b8b57600080fd5b610b9784828501610b0c565b91505092915050565b6000610bac8383610bcc565b60208301905092915050565b6000610bc48383610dbb565b905092915050565b610bd58161114a565b82525050565b610be48161114a565b82525050565b6000610bf58261106a565b610bff81856110a5565b9350610c0a8361104a565b8060005b83811015610c3b578151610c228882610ba0565b9750610c2d8361108b565b925050600181019050610c0e565b5085935050505092915050565b6000610c5382611075565b610c5d81856110b6565b935083602082028501610c6f8561105a565b8060005b85811015610cab5784840389528151610c8c8582610bb8565b9450610c9783611098565b925060208a01995050600181019050610c73565b50829750879550505050505092915050565b6000610cc882611080565b610cd281856110d2565b9350610ce2818560208601611195565b610ceb81611318565b840191505092915050565b6000610d0182611080565b610d0b81856110e3565b9350610d1b818560208601611195565b610d2481611318565b840191505092915050565b6000610d3c601d836110e3565b9150610d4782611329565b602082019050919050565b6000610d5f6034836110e3565b9150610d6a82611352565b604082019050919050565b6000610d826027836110e3565b9150610d8d826113a1565b604082019050919050565b6000610da56000836110c7565b9150610db0826113f0565b600082019050919050565b6000606083016000830151610dd36000860182610bcc565b5060208301518482036020860152610deb8282610cbd565b9150506040830151610e006040860182610e0b565b508091505092915050565b610e148161117c565b82525050565b610e238161117c565b82525050565b6000610e3482610d98565b9150819050919050565b60006020820190508181036000830152610e588184610bea565b905092915050565b60006020820190508181036000830152610e7a8184610c48565b905092915050565b60006020820190508181036000830152610e9c8184610cf6565b905092915050565b60006040820190508181036000830152610ebe8185610cf6565b9050610ecd6020830184610bdb565b9392505050565b60006060820190508181036000830152610eee8186610cf6565b9050610efd6020830185610bdb565b8181036040830152610f0f8184610cf6565b9050949350505050565b60006040820190508181036000830152610f338185610cf6565b9050610f426020830184610e1a565b9392505050565b60006020820190508181036000830152610f6281610d2f565b9050919050565b60006020820190508181036000830152610f8281610d52565b9050919050565b60006020820190508181036000830152610fa281610d75565b9050919050565b6000602082019050610fbe6000830184610e1a565b92915050565b6000604082019050610fd96000830185610e1a565b8181036020830152610feb8184610cf6565b90509392505050565b6000610ffe61100f565b905061100a82826111fa565b919050565b6000604051905090565b600067ffffffffffffffff821115611034576110336112e9565b5b61103d82611318565b9050602081019050919050565b6000819050602082019050919050565b6000819050602082019050919050565b600081519050919050565b600081519050919050565b600081519050919050565b6000602082019050919050565b6000602082019050919050565b600082825260208201905092915050565b600082825260208201905092915050565b600081905092915050565b600082825260208201905092915050565b600082825260208201905092915050565b60006110ff8261117c565b915061110a8361117c565b9250827fffffffffffffffffffffffffffffffffffffffffffffffffffffffffffffffff0382111561113f5761113e61125c565b5b828201905092915050565b60006111558261115c565b9050919050565b600073ffffffffffffffffffffffffffffffffffffffff82169050919050565b6000819050919050565b82818337600083830152505050565b60005b838110156111b3578082015181840152602081019050611198565b838111156111c2576000848401525b50505050565b600060028204905060018216806111e057607f821691505b602082108114156111f4576111f36112ba565b5b50919050565b61120382611318565b810181811067ffffffffffffffff82111715611222576112216112e9565b5b80604052505050565b60006112368261117c565b91506112418361117c565b9250826112515761125061128b565b5b828206905092915050565b7f4e487b7100000000000000000000000000000000000000000000000000000000600052601160045260246000fd5b7f4e487b7100000000000000000000000000000000000000000000000000000000600052601260045260246000fd5b7f4e487b7100000000000000000000000000000000000000000000000000000000600052602260045260246000fd5b7f4e487b7100000000000000000000000000000000000000000000000000000000600052604160045260246000fd5b6000601f19601f8301169050919050565b7f7761697420333073206265666f726520776176696e6720616761696e2e000000600082015250565b7f547279696e6720746f207769746864726177206d6f7265206d6f6e657920746860008201527f616e2074686520636f6e7472616374206861732e000000000000000000000000602082015250565b7f4661696c656420746f207769746864726177206d6f6e65792066726f6d20636f60008201527f6e74726163742e00000000000000000000000000000000000000000000000000602082015250565b50565b6113fc8161114a565b811461140757600080fd5b5056fea2646970667358221220907c9dc5fe18c84f54240c53c6a07859050b7ac9ce6d765eab179fbda408b61464736f6c63430008040033596f2c2077652074686520736d61727420636f6e747261637420616e6420776520736d6172742061732068656c6c21",
  "linkReferences": {},
  "deployedLinkReferences": {}
}