{
  "_format": "hh-sol-artifact-1",
  "contractName": "WavePortal",
  "sourceName": "contracts/WavePortal.sol",
  "abi": [
    {
      "inputs": [],
      "stateMutability": "nonpayable",
      "type": "constructor"
    },
    {
      "inputs": [],
      "name": "getTotalWaves",
      "outputs": [
        {
          "internalType": "uint256",
          "name": "",
          "type": "uint256"
        }
      ],
      "stateMutability": "view",
      "type": "function"
    },
    {
      "inputs": [],
      "name": "getWalletAddresses",
      "outputs": [
        {
          "internalType": "address[]",
          "name": "",
          "type": "address[]"
        }
      ],
      "stateMutability": "view",
      "type": "function"
    },
    {
      "inputs": [],
      "name": "wave",
      "outputs": [],
      "stateMutability": "nonpayable",
      "type": "function"
    }
  ],
  "bytecode": "0x608060405234801561001057600080fd5b5061003c6040518060600160405280602f8152602001610958602f913961004160201b6102601760201c565b6101c4565b6100dd816040516024016100559190610142565b6040516020818303038152906040527f41304fac000000000000000000000000000000000000000000000000000000007bffffffffffffffffffffffffffffffffffffffffffffffffffffffff19166020820180517bffffffffffffffffffffffffffffffffffffffffffffffffffffffff83818316178352505050506100e060201b60201c565b50565b60008151905060006a636f6e736f6c652e6c6f679050602083016000808483855afa5050505050565b600061011482610164565b61011e818561016f565b935061012e818560208601610180565b610137816101b3565b840191505092915050565b6000602082019050818103600083015261015c8184610109565b905092915050565b600081519050919050565b600082825260208201905092915050565b60005b8381101561019e578082015181840152602081019050610183565b838111156101ad576000848401525b50505050565b6000601f19601f8301169050919050565b610785806101d36000396000f3fe608060405234801561001057600080fd5b50600436106100415760003560e01c80636fe15b44146100465780638ada528e146100505780639a2cdc081461006e575b600080fd5b61004e61008c565b005b610058610149565b6040516100659190610536565b60405180910390f35b610076610215565b60405161008391906105da565b60405180910390f35b600160008082825461009e919061064a565b925050819055506001339080600181540180825580915050600190039060005260206000200160009091909190916101000a81548173ffffffffffffffffffffffffffffffffffffffff021916908373ffffffffffffffffffffffffffffffffffffffff1602179055506101476040518060400160405280600d81526020017f2573206861732077617665642100000000000000000000000000000000000000815250336102f9565b565b60606101896040518060400160405280601f81526020017f546865736520617265207468652077616c6c6574206164647265737365732100815250610260565b600180548060200260200160405190810160405280929190818152602001828054801561020b57602002820191906000526020600020905b8160009054906101000a900473ffffffffffffffffffffffffffffffffffffffff1673ffffffffffffffffffffffffffffffffffffffff16815260200190600101908083116101c1575b5050505050905090565b60006102586040518060400160405280601781526020017f5765206861766520256420746f74616c20776176657321000000000000000000815250600054610395565b600054905090565b6102f6816040516024016102749190610558565b6040516020818303038152906040527f41304fac000000000000000000000000000000000000000000000000000000007bffffffffffffffffffffffffffffffffffffffffffffffffffffffff19166020820180517bffffffffffffffffffffffffffffffffffffffffffffffffffffffff8381831617835250505050610431565b50565b610391828260405160240161030f92919061057a565b6040516020818303038152906040527f319af333000000000000000000000000000000000000000000000000000000007bffffffffffffffffffffffffffffffffffffffffffffffffffffffff19166020820180517bffffffffffffffffffffffffffffffffffffffffffffffffffffffff8381831617835250505050610431565b5050565b61042d82826040516024016103ab9291906105aa565b6040516020818303038152906040527f9710a9d0000000000000000000000000000000000000000000000000000000007bffffffffffffffffffffffffffffffffffffffffffffffffffffffff19166020820180517bffffffffffffffffffffffffffffffffffffffffffffffffffffffff8381831617835250505050610431565b5050565b60008151905060006a636f6e736f6c652e6c6f679050602083016000808483855afa5050505050565b60006104668383610472565b60208301905092915050565b61047b816106a0565b82525050565b61048a816106a0565b82525050565b600061049b82610605565b6104a58185610628565b93506104b0836105f5565b8060005b838110156104e15781516104c8888261045a565b97506104d38361061b565b9250506001810190506104b4565b5085935050505092915050565b60006104f982610610565b6105038185610639565b93506105138185602086016106dc565b61051c8161073e565b840191505092915050565b610530816106d2565b82525050565b600060208201905081810360008301526105508184610490565b905092915050565b6000602082019050818103600083015261057281846104ee565b905092915050565b6000604082019050818103600083015261059481856104ee565b90506105a36020830184610481565b9392505050565b600060408201905081810360008301526105c481856104ee565b90506105d36020830184610527565b9392505050565b60006020820190506105ef6000830184610527565b92915050565b6000819050602082019050919050565b600081519050919050565b600081519050919050565b6000602082019050919050565b600082825260208201905092915050565b600082825260208201905092915050565b6000610655826106d2565b9150610660836106d2565b9250827fffffffffffffffffffffffffffffffffffffffffffffffffffffffffffffffff038211156106955761069461070f565b5b828201905092915050565b60006106ab826106b2565b9050919050565b600073ffffffffffffffffffffffffffffffffffffffff82169050919050565b6000819050919050565b60005b838110156106fa5780820151818401526020810190506106df565b83811115610709576000848401525b50505050565b7f4e487b7100000000000000000000000000000000000000000000000000000000600052601160045260246000fd5b6000601f19601f830116905091905056fea2646970667358221220f9e7e7fab6e3891e433ea67590fc0f5e11c24d2576b51730e888e9cb3f443fd764736f6c63430008040033596f2c2077652074686520736d61727420636f6e747261637420616e6420776520736d6172742061732068656c6c21",
  "linkReferences": {},
  "deployedLinkReferences": {}
}